{
  "contractName": "Calculator",
  "abi": [
    {
      "anonymous": false,
      "inputs": [
        {
          "indexed": false,
          "name": "n",
          "type": "uint256"
        }
      ],
      "name": "NumberAdded",
      "type": "event"
    },
    {
      "anonymous": false,
      "inputs": [
        {
          "indexed": false,
          "name": "n",
          "type": "uint256"
        }
      ],
      "name": "NumberSubtracted",
      "type": "event"
    },
    {
      "anonymous": false,
      "inputs": [
        {
          "indexed": false,
          "name": "n",
          "type": "uint256"
        }
      ],
      "name": "NumberMultiplied",
      "type": "event"
    },
    {
      "anonymous": false,
      "inputs": [
        {
          "indexed": false,
          "name": "n",
          "type": "uint256"
        }
      ],
      "name": "NumberDivided",
      "type": "event"
    },
    {
      "constant": false,
      "inputs": [
        {
          "name": "num",
          "type": "uint256"
        }
      ],
      "name": "CalculatorV2",
      "outputs": [],
      "payable": false,
      "stateMutability": "nonpayable",
      "type": "function"
    },
    {
      "constant": true,
      "inputs": [],
      "name": "getResult",
      "outputs": [
        {
          "name": "",
          "type": "uint256"
        }
      ],
      "payable": false,
      "stateMutability": "view",
      "type": "function"
    },
    {
      "constant": false,
      "inputs": [
        {
          "name": "num",
          "type": "uint256"
        }
      ],
      "name": "addToNumber",
      "outputs": [
        {
          "name": "",
          "type": "uint256"
        }
      ],
      "payable": false,
      "stateMutability": "nonpayable",
      "type": "function"
    },
    {
      "constant": false,
      "inputs": [
        {
          "name": "num",
          "type": "uint256"
        }
      ],
      "name": "substractNumber",
      "outputs": [
        {
          "name": "",
          "type": "uint256"
        }
      ],
      "payable": false,
      "stateMutability": "nonpayable",
      "type": "function"
    },
    {
      "constant": false,
      "inputs": [
        {
          "name": "num",
          "type": "uint256"
        }
      ],
      "name": "multiplyWithNumber",
      "outputs": [
        {
          "name": "",
          "type": "uint256"
        }
      ],
      "payable": false,
      "stateMutability": "nonpayable",
      "type": "function"
    },
    {
      "constant": false,
      "inputs": [
        {
          "name": "num",
          "type": "uint256"
        }
      ],
      "name": "divideByNumber",
      "outputs": [
        {
          "name": "",
          "type": "uint256"
        }
      ],
      "payable": false,
      "stateMutability": "nonpayable",
      "type": "function"
    }
  ],
  "bytecode": "0x6060604052341561000f57600080fd5b6103358061001e6000396000f300606060405260043610610078576000357c0100000000000000000000000000000000000000000000000000000000900463ffffffff16806306ccd2301461007d5780630b7e4e7f146100b4578063b4679b06146100eb578063d25ce5bc14610122578063de29278914610145578063f5cb911d1461016e575b600080fd5b341561008857600080fd5b61009e60048080359060200190919050506101a5565b6040518082815260200191505060405180910390f35b34156100bf57600080fd5b6100d560048080359060200190919050506101f7565b6040518082815260200191505060405180910390f35b34156100f657600080fd5b61010c6004808035906020019091905050610249565b6040518082815260200191505060405180910390f35b341561012d57600080fd5b610143600480803590602001909190505061029b565b005b341561015057600080fd5b6101586102a5565b6040518082815260200191505060405180910390f35b341561017957600080fd5b61018f60048080359060200190919050506102ae565b6040518082815260200191505060405180910390f35b60008160008082825401925050819055507fae3addfccd9152bd45552621c986157cf223c02d568e9c2c678baa8dbf81a233826040518082815260200191505060405180910390a16000549050919050565b60008160008082825403925050819055507f439edab735a689015068ab41d6d30bd005705cfa5a000161404fafd0c7b78673826040518082815260200191505060405180910390a16000549050919050565b60008160008082825402925050819055507fa895b6fc5616dc5f28ac38cbba65bf73cc432c1d07abc566c2ee5a77d7e14b75826040518082815260200191505060405180910390a16000549050919050565b8060008190555050565b60008054905090565b6000816000808282548115156102c057fe5b04925050819055507fed0bc23928add0162a999d4ea2049c291319a7a8963d7e72136b37c73ee4f991826040518082815260200191505060405180910390a160005490509190505600a165627a7a72305820684d4357b293d6b41e5f7a7238e07529e09820588984d21083c566e3ee76c7f20029",
  "source": "pragma solidity ^0.4.6;\n\ncontract Calculator {\n\n    uint result;\n\n    event NumberAdded(uint n);\n    event NumberSubtracted(uint n);\n    event NumberMultiplied(uint n);\n    event NumberDivided(uint n);\n\n    function CalculatorV2(uint num) public {\n        // constructor\n        result=num;\n    }\n\n    // returns the result\n    function getResult() public constant returns (uint){\n        return result;\n    }\n\n    // result = result + num\n    function addToNumber(uint num) public returns (uint) {\n        result += num;\n        NumberAdded(num);\n        return result;\n    }\n\n    // result = result - num\n    function substractNumber(uint num) public returns (uint) {\n        result -= num;\n        NumberSubtracted(num);\n        return result;\n    }\n\n    // result = result * num\n    function multiplyWithNumber(uint num) public returns (uint) {\n        result *= num;\n        NumberMultiplied(num);\n        return result;\n    }\n\n    // result = result / num\n    function divideByNumber(uint num) public returns (uint) {\n        result /= num;\n        NumberDivided(num);\n        return result;\n    }\n\n}",
  "sourcePath": "/Users/finle/Git/truffleSample/contracts/Calculator.sol",
  "compiler": {
    "name": "solc",
    "version": "0.4.19+commit.c4cbbb05.Emscripten.clang"
  },
  "schemaVersion": "2.0.0",
  "updatedAt": "2018-03-25T08:04:01.005Z"
}